{
  "_format": "hh-sol-artifact-1",
  "contractName": "ArcSentryFactory",
  "sourceName": "contracts/ArcSentryVault.sol",
  "abi": [
    {
      "inputs": [
        {
          "internalType": "address",
          "name": "_usdcToken",
          "type": "address"
        },
        {
          "internalType": "address",
          "name": "_adminAddress",
          "type": "address"
        }
      ],
      "stateMutability": "nonpayable",
      "type": "constructor"
    },
    {
      "anonymous": false,
      "inputs": [
        {
          "indexed": true,
          "internalType": "address",
          "name": "vaultAddress",
          "type": "address"
        },
        {
          "indexed": true,
          "internalType": "address",
          "name": "client",
          "type": "address"
        },
        {
          "indexed": true,
          "internalType": "address",
          "name": "specialist",
          "type": "address"
        },
        {
          "indexed": false,
          "internalType": "uint256",
          "name": "amount",
          "type": "uint256"
        },
        {
          "indexed": false,
          "internalType": "uint256",
          "name": "timestamp",
          "type": "uint256"
        }
      ],
      "name": "VaultDeployed",
      "type": "event"
    },
    {
      "inputs": [],
      "name": "adminAddress",
      "outputs": [
        {
          "internalType": "address",
          "name": "",
          "type": "address"
        }
      ],
      "stateMutability": "view",
      "type": "function"
    },
    {
      "inputs": [
        {
          "internalType": "uint256",
          "name": "",
          "type": "uint256"
        }
      ],
      "name": "allVaults",
      "outputs": [
        {
          "internalType": "address",
          "name": "",
          "type": "address"
        }
      ],
      "stateMutability": "view",
      "type": "function"
    },
    {
      "inputs": [
        {
          "internalType": "address",
          "name": "_specialist",
          "type": "address"
        },
        {
          "internalType": "uint256",
          "name": "_amount",
          "type": "uint256"
        },
        {
          "internalType": "string",
          "name": "_description",
          "type": "string"
        }
      ],
      "name": "createVault",
      "outputs": [
        {
          "internalType": "address",
          "name": "vaultAddress",
          "type": "address"
        }
      ],
      "stateMutability": "nonpayable",
      "type": "function"
    },
    {
      "inputs": [],
      "name": "getAllVaults",
      "outputs": [
        {
          "internalType": "address[]",
          "name": "",
          "type": "address[]"
        }
      ],
      "stateMutability": "view",
      "type": "function"
    },
    {
      "inputs": [
        {
          "internalType": "address",
          "name": "_client",
          "type": "address"
        }
      ],
      "name": "getVaultsByClient",
      "outputs": [
        {
          "internalType": "address[]",
          "name": "",
          "type": "address[]"
        }
      ],
      "stateMutability": "view",
      "type": "function"
    },
    {
      "inputs": [
        {
          "internalType": "address",
          "name": "_specialist",
          "type": "address"
        }
      ],
      "name": "getVaultsBySpecialist",
      "outputs": [
        {
          "internalType": "address[]",
          "name": "",
          "type": "address[]"
        }
      ],
      "stateMutability": "view",
      "type": "function"
    },
    {
      "inputs": [],
      "name": "totalVaults",
      "outputs": [
        {
          "internalType": "uint256",
          "name": "",
          "type": "uint256"
        }
      ],
      "stateMutability": "view",
      "type": "function"
    },
    {
      "inputs": [],
      "name": "usdcToken",
      "outputs": [
        {
          "internalType": "address",
          "name": "",
          "type": "address"
        }
      ],
      "stateMutability": "view",
      "type": "function"
    },
    {
      "inputs": [
        {
          "internalType": "address",
          "name": "",
          "type": "address"
        },
        {
          "internalType": "uint256",
          "name": "",
          "type": "uint256"
        }
      ],
      "name": "vaultsByClient",
      "outputs": [
        {
          "internalType": "address",
          "name": "",
          "type": "address"
        }
      ],
      "stateMutability": "view",
      "type": "function"
    },
    {
      "inputs": [
        {
          "internalType": "address",
          "name": "",
          "type": "address"
        },
        {
          "internalType": "uint256",
          "name": "",
          "type": "uint256"
        }
      ],
      "name": "vaultsBySpecialist",
      "outputs": [
        {
          "internalType": "address",
          "name": "",
          "type": "address"
        }
      ],
      "stateMutability": "view",
      "type": "function"
    }
  ],
  "bytecode": "0x60c060405234801561001057600080fd5b506040516127ff3803806127ff83398101604081905261002f91610113565b6001600160a01b03821661008a5760405162461bcd60e51b815260206004820152601d60248201527f466163746f72793a20555344432061646472657373206973207a65726f00000060448201526064015b60405180910390fd5b6001600160a01b0381166100e05760405162461bcd60e51b815260206004820152601e60248201527f466163746f72793a2041646d696e2061646472657373206973207a65726f00006044820152606401610081565b6001600160a01b039182166080521660a052610146565b80516001600160a01b038116811461010e57600080fd5b919050565b6000806040838503121561012657600080fd5b61012f836100f7565b915061013d602084016100f7565b90509250929050565b60805160a051612687610178600039600081816101b0015261046101526000818160b6015261044001526126876000f3fe60806040523480156200001157600080fd5b5060043610620000ab5760003560e01c806397680d1c116200006e57806397680d1c146200014e5780639d4ce4011462000165578063a20c16ad146200017c578063a7954c061462000193578063fc6f946814620001aa57600080fd5b806311eac85514620000b05780631961b3d214620000f55780638d654023146200010c5780639094a91e146200011e57806397331bf91462000135575b600080fd5b620000d87f000000000000000000000000000000000000000000000000000000000000000081565b6040516001600160a01b0390911681526020015b60405180910390f35b620000d862000106366004620006d7565b620001d2565b600054604051908152602001620000ec565b620000d86200012f36600462000704565b6200020b565b6200013f62000236565b604051620000ec91906200071e565b620000d86200015f3660046200076d565b6200029a565b6200013f62000176366004620007fb565b620005a1565b6200013f6200018d366004620007fb565b62000619565b620000d8620001a4366004620006d7565b6200068f565b620000d87f000000000000000000000000000000000000000000000000000000000000000081565b60016020528160005260406000208181548110620001ef57600080fd5b6000918252602090912001546001600160a01b03169150829050565b600081815481106200021c57600080fd5b6000918252602090912001546001600160a01b0316905081565b606060008054806020026020016040519081016040528092919081815260200182805480156200029057602002820191906000526020600020905b81546001600160a01b0316815260019091019060200180831162000271575b5050505050905090565b60006001600160a01b038516620003045760405162461bcd60e51b815260206004820152602360248201527f466163746f72793a205370656369616c6973742061646472657373206973207a60448201526265726f60e81b60648201526084015b60405180910390fd5b60008411620003685760405162461bcd60e51b815260206004820152602960248201527f466163746f72793a20416d6f756e74206d7573742062652067726561746572206044820152687468616e207a65726f60b81b6064820152608401620002fb565b81620003c35760405162461bcd60e51b8152602060048201526024808201527f466163746f72793a204465736372697074696f6e2063616e6e6f7420626520656044820152636d70747960e01b6064820152608401620002fb565b336001600160a01b03861603620004375760405162461bcd60e51b815260206004820152603160248201527f466163746f72793a20596f752063616e6e6f7420626520626f746820436c69656044820152701b9d08185b990814dc1958da585b1a5cdd607a1b6064820152608401620002fb565b600033868686867f00000000000000000000000000000000000000000000000000000000000000007f00000000000000000000000000000000000000000000000000000000000000006040516200048e90620006ac565b620004a0979695949392919062000820565b604051809103906000f080158015620004bd573d6000803e3d6000fd5b5060008054600180820183557f290decd9548b62a8d60345a988386fc84ba6bc95484008f6362f93160ef3e56390910180546001600160a01b03199081166001600160a01b03868116918217909355338086526020858152604080882080548089018255908952828920018054861685179055948e1680885260028252858820805497880181558852968190209095018054909316821790925582518b815242948101949094529496508695509293917fc63ab98939dee147b033b9b919e2c118875998275f9d7d617ab500633edbd6bd910160405180910390a450949350505050565b6001600160a01b0381166000908152600160209081526040918290208054835181840281018401909452808452606093928301828280156200060d57602002820191906000526020600020905b81546001600160a01b03168152600190910190602001808311620005ee575b50505050509050919050565b6001600160a01b0381166000908152600260209081526040918290208054835181840281018401909452808452606093928301828280156200060d576020028201919060005260206000209081546001600160a01b03168152600190910190602001808311620005ee5750505050509050919050565b60026020528160005260406000208181548110620001ef57600080fd5b611dcc806200088683390190565b80356001600160a01b0381168114620006d257600080fd5b919050565b60008060408385031215620006eb57600080fd5b620006f683620006ba565b946020939093013593505050565b6000602082840312156200071757600080fd5b5035919050565b6020808252825182820181905260009190848201906040850190845b81811015620007615783516001600160a01b0316835292840192918401916001016200073a565b50909695505050505050565b600080600080606085870312156200078457600080fd5b6200078f85620006ba565b935060208501359250604085013567ffffffffffffffff80821115620007b457600080fd5b818701915087601f830112620007c957600080fd5b813581811115620007d957600080fd5b886020828501011115620007ec57600080fd5b95989497505060200194505050565b6000602082840312156200080e57600080fd5b6200081982620006ba565b9392505050565b600060018060a01b03808a168352808916602084015287604084015260c060608401528560c0840152858760e0850137600060e0878501015260e0601f19601f8801168401019150808516608084015280841660a0840152509897505050505050505056fe60c06040523480156200001157600080fd5b5060405162001dcc38038062001dcc833981016040819052620000349162000420565b6001600160a01b0386166200009a5760405162461bcd60e51b815260206004820152602160248201527f41726353656e7472793a20436c69656e742061646472657373206973207a65726044820152606f60f81b60648201526084015b60405180910390fd5b6001600160a01b038516620001005760405162461bcd60e51b815260206004820152602560248201527f41726353656e7472793a205370656369616c6973742061646472657373206973604482015264207a65726f60d81b606482015260840162000091565b846001600160a01b0316866001600160a01b031603620001895760405162461bcd60e51b815260206004820152603360248201527f41726353656e7472793a20436c69656e7420616e64205370656369616c69737460448201527f2063616e6e6f74206265207468652073616d6500000000000000000000000000606482015260840162000091565b60008411620001ef5760405162461bcd60e51b815260206004820152602b60248201527f41726353656e7472793a20416d6f756e74206d7573742062652067726561746560448201526a72207468616e207a65726f60a81b606482015260840162000091565b6000835111620002515760405162461bcd60e51b815260206004820152602660248201527f41726353656e7472793a204465736372697074696f6e2063616e6e6f7420626560448201526520656d70747960d01b606482015260840162000091565b6001600160a01b038216620002b75760405162461bcd60e51b815260206004820152602560248201527f41726353656e7472793a205553444320746f6b656e2061646472657373206973604482015264207a65726f60d81b606482015260840162000091565b6001600160a01b0381166200030f5760405162461bcd60e51b815260206004820181905260248201527f41726353656e7472793a2041646d696e2061646472657373206973207a65726f604482015260640162000091565b600080546001600160a01b038089166001600160a01b031992831617909255600180549288169290911691909117905560028490556003620003528482620005bd565b506001600160a01b0382811660805281811660a0526004805460ff19169055426005819055604051878316928916917f28836258bf178da4c95cef7057fcde6a4405cd9a3984fb50d9f2bc7b3035255a91620003b391899189919062000689565b60405180910390a3505050505050620006cd565b80516001600160a01b0381168114620003df57600080fd5b919050565b634e487b7160e01b600052604160045260246000fd5b60005b8381101562000417578181015183820152602001620003fd565b50506000910152565b60008060008060008060c087890312156200043a57600080fd5b6200044587620003c7565b95506200045560208801620003c7565b6040880151606089015191965094506001600160401b03808211156200047a57600080fd5b818901915089601f8301126200048f57600080fd5b815181811115620004a457620004a4620003e4565b604051601f8201601f19908116603f01168101908382118183101715620004cf57620004cf620003e4565b816040528281528c6020848701011115620004e957600080fd5b620004fc836020830160208801620003fa565b80975050505050506200051260808801620003c7565b91506200052260a08801620003c7565b90509295509295509295565b600181811c908216806200054357607f821691505b6020821081036200056457634e487b7160e01b600052602260045260246000fd5b50919050565b601f821115620005b857600081815260208120601f850160051c81016020861015620005935750805b601f850160051c820191505b81811015620005b4578281556001016200059f565b5050505b505050565b81516001600160401b03811115620005d957620005d9620003e4565b620005f181620005ea84546200052e565b846200056a565b602080601f831160018114620006295760008415620006105750858301515b600019600386901b1c1916600185901b178555620005b4565b600085815260208120601f198616915b828110156200065a5788860151825594840194600190910190840162000639565b5085821015620006795787850151600019600388901b60f8161c191681555b5050505050600190811b01905550565b8381526060602082015260008351806060840152620006b0816080850160208801620003fa565b604083019390935250601f91909101601f19160160800192915050565b60805160a0516116af6200071d60003960008181610253015261092d015260008181610165015281816104510152818161077901528181610af801528181610c2c015261107001526116af6000f3fe608060405234801561001057600080fd5b50600436106101215760003560e01c8063881f227c116100ad578063d5cef13311610071578063d5cef13314610236578063f240f7c31461023e578063f7800e6914610246578063fc6f94681461024e578063fdc5587b1461027557600080fd5b8063881f227c146101f35780638b7afe2e14610206578063998a08de1461021c578063aa8c217c14610224578063cf09e0d01461022d57600080fd5b806335a9731b116100f457806335a9731b146101a1578063533092ef146101a95780636292bfe9146101c357806369d89575146101d65780637284e416146101de57600080fd5b80630b2e1baf14610126578063109e94cf1461013057806311eac85514610160578063200d2ed214610187575b600080fd5b61012e61027d565b005b600054610143906001600160a01b031681565b6040516001600160a01b0390911681526020015b60405180910390f35b6101437f000000000000000000000000000000000000000000000000000000000000000081565b6004546101949060ff1681565b60405161015791906113fe565b61012e61032d565b6101b161059b565b60405161015796959493929190611458565b600154610143906001600160a01b031681565b61012e610672565b6101e6610894565b60405161015791906114ab565b61012e6102013660046114c5565b610922565b61020e610c14565b604051908152602001610157565b61012e610ca4565b61020e60025481565b61020e60055481565b61012e610dc6565b61012e610ee0565b61012e610ff7565b6101437f000000000000000000000000000000000000000000000000000000000000000081565b61012e611326565b6001546001600160a01b031633146102b05760405162461bcd60e51b81526004016102a7906114e8565b60405180910390fd5b60008060045460ff1660078111156102ca576102ca6113c6565b146102e75760405162461bcd60e51b81526004016102a79061152f565b6004805460ff1916600117905560405142815233907faef5e7dabe293908c3475f9e9a62e3d5125e2e798a875334b50073bcba839ff0906020015b60405180910390a250565b6001546001600160a01b031633146103575760405162461bcd60e51b81526004016102a7906114e8565b600260045460ff166007811115610370576103706113c6565b14806103925750600360045460ff166007811115610390576103906113c6565b145b806103b257506004805460ff1660078111156103b0576103b06113c6565b145b6104155760405162461bcd60e51b815260206004820152602e60248201527f41726353656e7472793a204e6f2061637469766520726566756e64207265717560448201526d65737420746f20617070726f766560901b60648201526084016102a7565b6004805460ff191660061781556000805460025460405163a9059cbb60e01b81526001600160a01b0392831694810194909452602484015290917f00000000000000000000000000000000000000000000000000000000000000009091169063a9059cbb906044016020604051808303816000875af115801561049c573d6000803e3d6000fd5b505050506040513d601f19601f820116820180604052508101906104c0919061157d565b90508061051f5760405162461bcd60e51b815260206004820152602760248201527f41726353656e7472793a205553444320726566756e6420746f20436c69656e746044820152660819985a5b195960ca1b60648201526084016102a7565b60405142815233907f81dfb7df8612d71368165daf6c8ceb886194aef9bcefca7f7ba555e92d68a67c9060200160405180910390a2600054600254604080519182524260208301526001600160a01b03909216917ffc48f4f163cfed28aaf3be3f0b162a1338fab214afc9340eafc6cb081c71fadf9101610322565b600080546001546002546004546005546003805487968796606096889687966001600160a01b03948516969390941694919360ff9091169183906105de9061159f565b80601f016020809104026020016040519081016040528092919081815260200182805461060a9061159f565b80156106575780601f1061062c57610100808354040283529160200191610657565b820191906000526020600020905b81548152906001019060200180831161063a57829003601f168201915b50505050509250955095509550955095509550909192939495565b6000546001600160a01b0316331461069c5760405162461bcd60e51b81526004016102a7906115d9565b600360045460ff1660078111156106b5576106b56113c6565b14806106d657506004805460ff1660078111156106d4576106d46113c6565b145b61073d5760405162461bcd60e51b815260206004820152603260248201527f41726353656e7472793a2043616e6e6f742072656c65617365202d207661756c6044820152711d081cdd185d1d5cc81a5b98dbdc9c9958dd60721b60648201526084016102a7565b6004805460ff1916600517815560015460025460405163a9059cbb60e01b81526001600160a01b039283169381019390935260248301526000917f00000000000000000000000000000000000000000000000000000000000000009091169063a9059cbb906044016020604051808303816000875af11580156107c4573d6000803e3d6000fd5b505050506040513d601f19601f820116820180604052508101906107e8919061157d565b90508061084d5760405162461bcd60e51b815260206004820152602d60248201527f41726353656e7472793a2055534443207472616e7366657220746f205370656360448201526c1a585b1a5cdd0819985a5b1959609a1b60648201526084016102a7565b600154600254604080519182524260208301526001600160a01b03909216917fc90c76155d237557f9162f07cd0da2ff40418cd82028c0e89535270fb9de51049101610322565b600380546108a19061159f565b80601f01602080910402602001604051908101604052809291908181526020018280546108cd9061159f565b801561091a5780601f106108ef5761010080835404028352916020019161091a565b820191906000526020600020905b8154815290600101906020018083116108fd57829003601f168201915b505050505081565b336001600160a01b037f000000000000000000000000000000000000000000000000000000000000000016146109a55760405162461bcd60e51b815260206004820152602260248201527f41726353656e7472793a2043616c6c6572206973206e6f74207468652041646d60448201526134b760f11b60648201526084016102a7565b60048060045460ff1660078111156109bf576109bf6113c6565b146109dc5760405162461bcd60e51b81526004016102a79061152f565b60ff821615806109ef57508160ff166001145b610a615760405162461bcd60e51b815260206004820152603e60248201527f41726353656e7472793a20496e76616c69642077696e6e6572203a207573652060448201527f3020666f7220436c69656e742c203120666f72205370656369616c697374000060648201526084016102a7565b60008260ff16600114610a7f576000546001600160a01b0316610a8c565b6001546001600160a01b03165b905060008360ff16600114610aa2576006610aa5565b60055b60048054919250829160ff19166001836007811115610ac657610ac66113c6565b021790555060025460405163a9059cbb60e01b81526001600160a01b03848116600483015260248201929092526000917f0000000000000000000000000000000000000000000000000000000000000000169063a9059cbb906044016020604051808303816000875af1158015610b41573d6000803e3d6000fd5b505050506040513d601f19601f82011682018060405250810190610b65919061157d565b905080610bca5760405162461bcd60e51b815260206004820152602d60248201527f41726353656e7472793a2055534443207472616e7366657220696e207265736f60448201526c1b1d5d1a5bdb8819985a5b1959609a1b60648201526084016102a7565b604080516001600160a01b038516815242602082015233917fc98fd1f80a8937b1fdeb951d0b63bf7c924a1872543ae2499295625b18abe70e910160405180910390a25050505050565b6040516370a0823160e01b81523060048201526000907f00000000000000000000000000000000000000000000000000000000000000006001600160a01b0316906370a0823190602401602060405180830381865afa158015610c7b573d6000803e3d6000fd5b505050506040513d601f19601f82011682018060405250810190610c9f919061161c565b905090565b6000546001600160a01b0316331480610cc757506001546001600160a01b031633145b610ce35760405162461bcd60e51b81526004016102a790611635565b600060045460ff166007811115610cfc57610cfc6113c6565b1480610d1e5750600160045460ff166007811115610d1c57610d1c6113c6565b145b610d815760405162461bcd60e51b815260206004820152602e60248201527f41726353656e7472793a2043616e6e6f742063616e63656c206166746572207660448201526d185d5b1d081a5cc8199d5b99195960921b60648201526084016102a7565b6004805460ff1916600717905560405142815233907f06278e3e22441341d577030b9e446fd308bcc52de3ff239df953165e14f2f63a906020015b60405180910390a2565b6000546001600160a01b03163314610df05760405162461bcd60e51b81526004016102a7906115d9565b600260045460ff166007811115610e0957610e096113c6565b1480610e2b5750600360045460ff166007811115610e2957610e296113c6565b145b80610e4b57506004805460ff166007811115610e4957610e496113c6565b145b610eae5760405162461bcd60e51b815260206004820152602e60248201527f41726353656e7472793a2043616e6e6f74207265717565737420726566756e6460448201526d206174207468697320737461676560901b60648201526084016102a7565b60405142815233907f4dc30368d5fd343625c506520752ceeebb912396e82ee3dc67a094b18b1326d090602001610dbc565b6000546001600160a01b0316331480610f0357506001546001600160a01b031633145b610f1f5760405162461bcd60e51b81526004016102a790611635565b600260045460ff166007811115610f3857610f386113c6565b1480610f5a5750600360045460ff166007811115610f5857610f586113c6565b145b610fb95760405162461bcd60e51b815260206004820152602a60248201527f41726353656e7472793a2043616e206f6e6c79206469737075746520612066756044820152691b991959081d985d5b1d60b21b60648201526084016102a7565b6004805460ff19168117905560405142815233907fbd189a57edd98c9c61d4dd3cf0d28749a2cdda08f9bc354f8864830e0452082490602001610dbc565b6000546001600160a01b031633146110215760405162461bcd60e51b81526004016102a7906115d9565b60018060045460ff16600781111561103b5761103b6113c6565b146110585760405162461bcd60e51b81526004016102a79061152f565b6002546040516370a0823160e01b81523360048201527f000000000000000000000000000000000000000000000000000000000000000091906001600160a01b038316906370a0823190602401602060405180830381865afa1580156110c2573d6000803e3d6000fd5b505050506040513d601f19601f820116820180604052508101906110e6919061161c565b10156111405760405162461bcd60e51b8152602060048201526024808201527f41726353656e7472793a20496e73756666696369656e7420555344432062616c604482015263616e636560e01b60648201526084016102a7565b600254604051636eb1769f60e11b81523360048201523060248201526001600160a01b0383169063dd62ed3e90604401602060405180830381865afa15801561118d573d6000803e3d6000fd5b505050506040513d601f19601f820116820180604052508101906111b1919061161c565b10156112095760405162461bcd60e51b815260206004820152602160248201527f41726353656e7472793a205553444320616c6c6f77616e636520746f6f206c6f6044820152607760f81b60648201526084016102a7565b6002546040516323b872dd60e01b815233600482015230602482015260448101919091526000906001600160a01b038316906323b872dd906064016020604051808303816000875af1158015611263573d6000803e3d6000fd5b505050506040513d601f19601f82011682018060405250810190611287919061157d565b9050806112d65760405162461bcd60e51b815260206004820152601f60248201527f41726353656e7472793a2055534443207472616e73666572206661696c65640060448201526064016102a7565b6004805460ff19166002908117909155546040805191825242602083015233917f3dcb1a97c343d0c00e1809c139e8b8348116c0c82c850e0c82d54e91fb36e8b8910160405180910390a2505050565b6001546001600160a01b031633146113505760405162461bcd60e51b81526004016102a7906114e8565b60028060045460ff16600781111561136a5761136a6113c6565b146113875760405162461bcd60e51b81526004016102a79061152f565b6004805460ff1916600317905560405142815233907fb119911fe330a2404b309b712fc308317955383d897319b83fe8f4f805e63d2390602001610322565b634e487b7160e01b600052602160045260246000fd5b600881106113fa57634e487b7160e01b600052602160045260246000fd5b9052565b6020810161140c82846113dc565b92915050565b6000815180845260005b818110156114385760208185018101518683018201520161141c565b506000602082860101526020601f19601f83011685010191505092915050565b6001600160a01b038781168252861660208201526040810185905260c06060820181905260009061148b90830186611412565b905061149a60808301856113dc565b8260a0830152979650505050505050565b6020815260006114be6020830184611412565b9392505050565b6000602082840312156114d757600080fd5b813560ff811681146114be57600080fd5b60208082526027908201527f41726353656e7472793a2043616c6c6572206973206e6f74207468652053706560408201526618da585b1a5cdd60ca1b606082015260800190565b6020808252602e908201527f41726353656e7472793a20496e76616c6964207661756c74207374617465206660408201526d37b9103a3434b99030b1ba34b7b760911b606082015260800190565b60006020828403121561158f57600080fd5b815180151581146114be57600080fd5b600181811c908216806115b357607f821691505b6020821081036115d357634e487b7160e01b600052602260045260246000fd5b50919050565b60208082526023908201527f41726353656e7472793a2043616c6c6572206973206e6f742074686520436c69604082015262195b9d60ea1b606082015260800190565b60006020828403121561162e57600080fd5b5051919050565b60208082526024908201527f41726353656e7472793a204e6f74206120706172747920746f20746869732076604082015263185d5b1d60e21b60608201526080019056fea2646970667358221220fbdad74d54a0805484c2420ccfa9bd966b88eb4cfd021561d53311ffb8dda19c64736f6c63430008140033a264697066735822122040a56f2331e45b7dca016e19a4e761a0d246de2a4aef3acf5acdbb7a12e105e164736f6c63430008140033",
  "linkReferences": {},
  "deployedLinkReferences": {}
}